{
  "contractName": "Lottery",
  "abi": [
    {
      "inputs": [],
      "stateMutability": "nonpayable",
      "type": "constructor"
    },
    {
      "anonymous": false,
      "inputs": [
        {
          "indexed": false,
          "internalType": "address",
          "name": "winner",
          "type": "address"
        },
        {
          "indexed": false,
          "internalType": "uint256",
          "name": "prize",
          "type": "uint256"
        }
      ],
      "name": "WinnerPicked",
      "type": "event"
    },
    {
      "inputs": [],
      "name": "TVolume",
      "outputs": [
        {
          "internalType": "uint256",
          "name": "",
          "type": "uint256"
        }
      ],
      "stateMutability": "view",
      "type": "function",
      "constant": true
    },
    {
      "inputs": [],
      "name": "TX",
      "outputs": [
        {
          "internalType": "uint256",
          "name": "",
          "type": "uint256"
        }
      ],
      "stateMutability": "view",
      "type": "function",
      "constant": true
    },
    {
      "inputs": [
        {
          "internalType": "address",
          "name": "",
          "type": "address"
        }
      ],
      "name": "Tplayer",
      "outputs": [
        {
          "internalType": "uint256",
          "name": "timeplayed",
          "type": "uint256"
        },
        {
          "internalType": "uint256",
          "name": "wins",
          "type": "uint256"
        },
        {
          "internalType": "uint256",
          "name": "losses",
          "type": "uint256"
        }
      ],
      "stateMutability": "view",
      "type": "function",
      "constant": true
    },
    {
      "inputs": [],
      "name": "amount",
      "outputs": [
        {
          "internalType": "uint256",
          "name": "",
          "type": "uint256"
        }
      ],
      "stateMutability": "view",
      "type": "function",
      "constant": true
    },
    {
      "inputs": [],
      "name": "manager",
      "outputs": [
        {
          "internalType": "address",
          "name": "",
          "type": "address"
        }
      ],
      "stateMutability": "view",
      "type": "function",
      "constant": true
    },
    {
      "inputs": [
        {
          "internalType": "uint256",
          "name": "",
          "type": "uint256"
        }
      ],
      "name": "players",
      "outputs": [
        {
          "internalType": "address",
          "name": "",
          "type": "address"
        }
      ],
      "stateMutability": "view",
      "type": "function",
      "constant": true
    },
    {
      "inputs": [],
      "name": "prize",
      "outputs": [
        {
          "internalType": "uint256",
          "name": "",
          "type": "uint256"
        }
      ],
      "stateMutability": "view",
      "type": "function",
      "constant": true
    },
    {
      "inputs": [],
      "name": "winner",
      "outputs": [
        {
          "internalType": "address",
          "name": "",
          "type": "address"
        }
      ],
      "stateMutability": "view",
      "type": "function",
      "constant": true
    },
    {
      "inputs": [
        {
          "internalType": "uint256",
          "name": "",
          "type": "uint256"
        }
      ],
      "name": "winners",
      "outputs": [
        {
          "internalType": "address",
          "name": "",
          "type": "address"
        }
      ],
      "stateMutability": "view",
      "type": "function",
      "constant": true
    },
    {
      "inputs": [],
      "name": "getBalance",
      "outputs": [
        {
          "internalType": "uint256",
          "name": "",
          "type": "uint256"
        }
      ],
      "stateMutability": "view",
      "type": "function",
      "constant": true
    },
    {
      "inputs": [
        {
          "internalType": "address",
          "name": "player",
          "type": "address"
        }
      ],
      "name": "getPlayerStats",
      "outputs": [
        {
          "internalType": "uint256",
          "name": "wins",
          "type": "uint256"
        },
        {
          "internalType": "uint256",
          "name": "losses",
          "type": "uint256"
        },
        {
          "internalType": "uint256",
          "name": "timePlayed",
          "type": "uint256"
        }
      ],
      "stateMutability": "view",
      "type": "function",
      "constant": true
    },
    {
      "inputs": [],
      "name": "joinGame",
      "outputs": [],
      "stateMutability": "payable",
      "type": "function",
      "payable": true
    },
    {
      "inputs": [],
      "name": "pickWinner",
      "outputs": [],
      "stateMutability": "nonpayable",
      "type": "function"
    },
    {
      "inputs": [],
      "name": "transferPrize",
      "outputs": [],
      "stateMutability": "nonpayable",
      "type": "function"
    },
    {
      "inputs": [],
      "name": "viewPlayers",
      "outputs": [
        {
          "internalType": "address[]",
          "name": "",
          "type": "address[]"
        }
      ],
      "stateMutability": "view",
      "type": "function",
      "constant": true
    },
    {
      "inputs": [
        {
          "internalType": "address",
          "name": "player",
          "type": "address"
        }
      ],
      "name": "getWinCount",
      "outputs": [
        {
          "internalType": "uint256",
          "name": "",
          "type": "uint256"
        }
      ],
      "stateMutability": "view",
      "type": "function",
      "constant": true
    },
    {
      "inputs": [],
      "name": "viewPastWinners",
      "outputs": [
        {
          "internalType": "address[]",
          "name": "",
          "type": "address[]"
        }
      ],
      "stateMutability": "view",
      "type": "function",
      "constant": true
    }
  ],
  "bytecode": "0x608060405234801561001057600080fd5b50336000806101000a81548173ffffffffffffffffffffffffffffffffffffffff021916908373ffffffffffffffffffffffffffffffffffffffff16021790555061188b806100606000396000f3fe6080604052600436106100fe5760003560e01c8063d4f77b1c11610095578063e60dd34211610064578063e60dd3421461030a578063ea8c50c614610335578063ee18cd2f1461034c578063f6b3e3c41461038b578063f71d96cb146103b6576100fe565b8063d4f77b1c1461026d578063dfbf53ae14610277578063e0832cf6146102a2578063e3ac5d26146102df576100fe565b806368fa8822116100d157806368fa8822146101af578063a19c9355146101da578063a2fb117514610205578063aa8c217c14610242576100fe565b806312065fe014610103578063481c6a751461012e5780634fd66eae146101595780635d495aea14610198575b600080fd5b34801561010f57600080fd5b506101186103f3565b6040516101259190610f39565b60405180910390f35b34801561013a57600080fd5b506101436103fb565b6040516101509190610f95565b60405180910390f35b34801561016557600080fd5b50610180600480360381019061017b9190610fe1565b61041f565b60405161018f9392919061100e565b60405180910390f35b3480156101a457600080fd5b506101ad610483565b005b3480156101bb57600080fd5b506101c461083d565b6040516101d19190610f39565b60405180910390f35b3480156101e657600080fd5b506101ef610843565b6040516101fc9190610f39565b60405180910390f35b34801561021157600080fd5b5061022c60048036038101906102279190611071565b610849565b6040516102399190610f95565b60405180910390f35b34801561024e57600080fd5b50610257610888565b6040516102649190610f39565b60405180910390f35b610275610893565b005b34801561028357600080fd5b5061028c610ae8565b6040516102999190610f95565b60405180910390f35b3480156102ae57600080fd5b506102c960048036038101906102c49190610fe1565b610b0e565b6040516102d69190610f39565b60405180910390f35b3480156102eb57600080fd5b506102f4610b5a565b6040516103019190610f39565b60405180910390f35b34801561031657600080fd5b5061031f610b60565b60405161032c919061115c565b60405180910390f35b34801561034157600080fd5b5061034a610bee565b005b34801561035857600080fd5b50610373600480360381019061036e9190610fe1565b610d98565b6040516103829392919061100e565b60405180910390f35b34801561039757600080fd5b506103a0610dc2565b6040516103ad919061115c565b60405180910390f35b3480156103c257600080fd5b506103dd60048036038101906103d89190611071565b610e50565b6040516103ea9190610f95565b60405180910390f35b600047905090565b60008054906101000a900473ffffffffffffffffffffffffffffffffffffffff1681565b600080600080600360008673ffffffffffffffffffffffffffffffffffffffff1673ffffffffffffffffffffffffffffffffffffffff1681526020019081526020016000209050806001015481600201548260000154935093509350509193909250565b60008054906101000a900473ffffffffffffffffffffffffffffffffffffffff1673ffffffffffffffffffffffffffffffffffffffff163373ffffffffffffffffffffffffffffffffffffffff1614610511576040517f08c379a000000000000000000000000000000000000000000000000000000000815260040161050890611201565b60405180910390fd5b6003600180549050101561055a576040517f08c379a000000000000000000000000000000000000000000000000000000000815260040161055190611293565b60405180910390fd5b600060018054905061056a610e8f565b61057491906112e2565b90506001818154811061058a57610589611313565b5b9060005260206000200160009054906101000a900473ffffffffffffffffffffffffffffffffffffffff16600460006101000a81548173ffffffffffffffffffffffffffffffffffffffff021916908373ffffffffffffffffffffffffffffffffffffffff16021790555060036000600460009054906101000a900473ffffffffffffffffffffffffffffffffffffffff1673ffffffffffffffffffffffffffffffffffffffff1673ffffffffffffffffffffffffffffffffffffffff168152602001908152602001600020600101600081548092919061066a90611371565b91905055506007600081548092919061068290611371565b919050555060005b600180549050811015610748578181146107355760036000600183815481106106b6576106b5611313565b5b9060005260206000200160009054906101000a900473ffffffffffffffffffffffffffffffffffffffff1673ffffffffffffffffffffffffffffffffffffffff1673ffffffffffffffffffffffffffffffffffffffff168152602001908152602001600020600201600081548092919061072f90611371565b91905055505b808061074090611371565b91505061068a565b50476005819055506002600460009054906101000a900473ffffffffffffffffffffffffffffffffffffffff169080600181540180825580915050600190039060005260206000200160009091909190916101000a81548173ffffffffffffffffffffffffffffffffffffffff021916908373ffffffffffffffffffffffffffffffffffffffff1602179055507f64791dbae5677392ba76761a5273633cec8f1d9d8cfe808da7bac6ef16a880be600460009054906101000a900473ffffffffffffffffffffffffffffffffffffffff1660055460405161082a9291906113b9565b60405180910390a161083a610ed2565b50565b60075481565b60065481565b6002818154811061085957600080fd5b906000526020600020016000915054906101000a900473ffffffffffffffffffffffffffffffffffffffff1681565b66b1a2bc2ec5000081565b66b1a2bc2ec5000034146108dc576040517f08c379a00000000000000000000000000000000000000000000000000000000081526004016108d39061142e565b60405180910390fd5b606460018054905010610924576040517f08c379a000000000000000000000000000000000000000000000000000000000815260040161091b906114c0565b60405180910390fd5b60005b6001805490508110156109f3573373ffffffffffffffffffffffffffffffffffffffff166001828154811061095f5761095e611313565b5b9060005260206000200160009054906101000a900473ffffffffffffffffffffffffffffffffffffffff1673ffffffffffffffffffffffffffffffffffffffff16036109e0576040517f08c379a00000000000000000000000000000000000000000000000000000000081526004016109d790611552565b60405180910390fd5b80806109eb90611371565b915050610927565b506001339080600181540180825580915050600190039060005260206000200160009091909190916101000a81548173ffffffffffffffffffffffffffffffffffffffff021916908373ffffffffffffffffffffffffffffffffffffffff1602179055503460066000828254610a699190611572565b9250508190555060076000815480929190610a8390611371565b91905055506000600360003373ffffffffffffffffffffffffffffffffffffffff1673ffffffffffffffffffffffffffffffffffffffff1681526020019081526020016000209050806000016000815480929190610ae090611371565b919050555050565b600460009054906101000a900473ffffffffffffffffffffffffffffffffffffffff1681565b6000600360008373ffffffffffffffffffffffffffffffffffffffff1673ffffffffffffffffffffffffffffffffffffffff168152602001908152602001600020600101549050919050565b60055481565b60606002805480602002602001604051908101604052809291908181526020018280548015610be457602002820191906000526020600020905b8160009054906101000a900473ffffffffffffffffffffffffffffffffffffffff1673ffffffffffffffffffffffffffffffffffffffff1681526020019060010190808311610b9a575b5050505050905090565b600460009054906101000a900473ffffffffffffffffffffffffffffffffffffffff1673ffffffffffffffffffffffffffffffffffffffff163373ffffffffffffffffffffffffffffffffffffffff1614610c7e576040517f08c379a0000000000000000000000000000000000000000000000000000000008152600401610c75906115f2565b60405180910390fd5b600060055411610cc3576040517f08c379a0000000000000000000000000000000000000000000000000000000008152600401610cba9061165e565b60405180910390fd5b60055460066000828254610cd79190611572565b9250508190555060026001600280549050610cf2919061167e565b81548110610d0357610d02611313565b5b9060005260206000200160009054906101000a900473ffffffffffffffffffffffffffffffffffffffff1673ffffffffffffffffffffffffffffffffffffffff166108fc6005549081150290604051600060405180830381858888f19350505050158015610d75573d6000803e3d6000fd5b5060076000815480929190610d8990611371565b91905055506000600581905550565b60036020528060005260406000206000915090508060000154908060010154908060020154905083565b60606001805480602002602001604051908101604052809291908181526020018280548015610e4657602002820191906000526020600020905b8160009054906101000a900473ffffffffffffffffffffffffffffffffffffffff1673ffffffffffffffffffffffffffffffffffffffff1681526020019060010190808311610dfc575b5050505050905090565b60018181548110610e6057600080fd5b906000526020600020016000915054906101000a900473ffffffffffffffffffffffffffffffffffffffff1681565b6000600143610e9e919061167e565b40426001604051602001610eb49392919061181c565b6040516020818303038152906040528051906020012060001c905090565b60016000610ee09190610ee2565b565b5080546000825590600052602060002090810190610f009190610f03565b50565b5b80821115610f1c576000816000905550600101610f04565b5090565b6000819050919050565b610f3381610f20565b82525050565b6000602082019050610f4e6000830184610f2a565b92915050565b600073ffffffffffffffffffffffffffffffffffffffff82169050919050565b6000610f7f82610f54565b9050919050565b610f8f81610f74565b82525050565b6000602082019050610faa6000830184610f86565b92915050565b600080fd5b610fbe81610f74565b8114610fc957600080fd5b50565b600081359050610fdb81610fb5565b92915050565b600060208284031215610ff757610ff6610fb0565b5b600061100584828501610fcc565b91505092915050565b60006060820190506110236000830186610f2a565b6110306020830185610f2a565b61103d6040830184610f2a565b949350505050565b61104e81610f20565b811461105957600080fd5b50565b60008135905061106b81611045565b92915050565b60006020828403121561108757611086610fb0565b5b60006110958482850161105c565b91505092915050565b600081519050919050565b600082825260208201905092915050565b6000819050602082019050919050565b6110d381610f74565b82525050565b60006110e583836110ca565b60208301905092915050565b6000602082019050919050565b60006111098261109e565b61111381856110a9565b935061111e836110ba565b8060005b8381101561114f57815161113688826110d9565b9750611141836110f1565b925050600181019050611122565b5085935050505092915050565b6000602082019050818103600083015261117681846110fe565b905092915050565b600082825260208201905092915050565b7f4f6e6c79206d616e616765722063616e2063616c6c20746869732066756e637460008201527f696f6e0000000000000000000000000000000000000000000000000000000000602082015250565b60006111eb60238361117e565b91506111f68261118f565b604082019050919050565b6000602082019050818103600083015261121a816111de565b9050919050565b7f54686973206c6f7474657279206e65656473206d6f7265207468616e2033207060008201527f6c61796572730000000000000000000000000000000000000000000000000000602082015250565b600061127d60268361117e565b915061128882611221565b604082019050919050565b600060208201905081810360008301526112ac81611270565b9050919050565b7f4e487b7100000000000000000000000000000000000000000000000000000000600052601260045260246000fd5b60006112ed82610f20565b91506112f883610f20565b925082611308576113076112b3565b5b828206905092915050565b7f4e487b7100000000000000000000000000000000000000000000000000000000600052603260045260246000fd5b7f4e487b7100000000000000000000000000000000000000000000000000000000600052601160045260246000fd5b600061137c82610f20565b91507fffffffffffffffffffffffffffffffffffffffffffffffffffffffffffffffff82036113ae576113ad611342565b5b600182019050919050565b60006040820190506113ce6000830185610f86565b6113db6020830184610f2a565b9392505050565b7f496e636f72726563742065746865722076616c75652073656e74000000000000600082015250565b6000611418601a8361117e565b9150611423826113e2565b602082019050919050565b600060208201905081810360008301526114478161140b565b9050919050565b7f4d6178696d756d206e756d626572206f6620706c61796572732072656163686560008201527f6400000000000000000000000000000000000000000000000000000000000000602082015250565b60006114aa60218361117e565b91506114b58261144e565b604082019050919050565b600060208201905081810360008301526114d98161149d565b9050919050565b7f596f752061726520616c72656164792061207061727469636970616e7420696e60008201527f207468652067616d652e00000000000000000000000000000000000000000000602082015250565b600061153c602a8361117e565b9150611547826114e0565b604082019050919050565b6000602082019050818103600083015261156b8161152f565b9050919050565b600061157d82610f20565b915061158883610f20565b92508282019050808211156115a05761159f611342565b5b92915050565b7f6f6e6c792077696e6e65722063616e20636c61696d0000000000000000000000600082015250565b60006115dc60158361117e565b91506115e7826115a6565b602082019050919050565b6000602082019050818103600083015261160b816115cf565b9050919050565b7f4e6f207072697a6520746f207472616e73666572000000000000000000000000600082015250565b600061164860148361117e565b915061165382611612565b602082019050919050565b600060208201905081810360008301526116778161163b565b9050919050565b600061168982610f20565b915061169483610f20565b92508282039050818111156116ac576116ab611342565b5b92915050565b6000819050919050565b6000819050919050565b6116d76116d2826116b2565b6116bc565b82525050565b6000819050919050565b6116f86116f382610f20565b6116dd565b82525050565b600081549050919050565b600081905092915050565b60008190508160005260206000209050919050565b61173281610f74565b82525050565b60006117448383611729565b60208301905092915050565b60008160001c9050919050565b600073ffffffffffffffffffffffffffffffffffffffff82169050919050565b600061179061178b83611750565b61175d565b9050919050565b60006117a3825461177d565b9050919050565b6000600182019050919050565b60006117c2826116fe565b6117cc8185611709565b93506117d783611714565b8060005b8381101561180f576117ec82611797565b6117f68882611738565b9750611801836117aa565b9250506001810190506117db565b5085935050505092915050565b600061182882866116c6565b60208201915061183882856116e7565b60208201915061184882846117b7565b915081905094935050505056fea2646970667358221220376be3b3d462b638e582fa036fe391ef8a1879e76a323234363322e4b10bd71d64736f6c63430008130033",
  "immutableReferences": {},
  "source": "// SPDX-License-Identifier: MIT\r\npragma solidity ^0.8.19;\r\n\r\ncontract Lottery {\r\n    address public manager;\r\n    address[] public players;\r\n    address[] public winners;\r\n\r\n\r\n    mapping(address => Player) public Tplayer;\r\n    address public winner;\r\n    uint public prize;\r\n    uint public constant amount = 0.05 ether;\r\n    uint public TVolume;\r\n    uint public TX;\r\n\r\n    struct Player {\r\n        uint timeplayed;\r\n        uint wins;\r\n        uint losses;\r\n    }\r\n\r\n    modifier onlyManager() {\r\n        require(msg.sender == manager, \"Only manager can call this function\");\r\n        _;\r\n    }\r\n\r\n    modifier onlyWinner(){\r\n        require(msg.sender == winner,\"only winner can claim\");\r\n        _;\r\n    }\r\n   \r\n    event WinnerPicked(address winner, uint256 prize);\r\n\r\n    constructor() {\r\n        manager = msg.sender;\r\n    }\r\n\r\n\r\nfunction getBalance() public view returns (uint) {\r\n        return address(this).balance;\r\n    }\r\n\r\n    // function getTV() public view returns(uint){\r\n    //     return TVolume;\r\n    // }\r\n\r\n    // function TXtimes() public view returns(uint){\r\n    //     return TX;\r\n    // }\r\n//     function timesPlayed() public view returns(uint){\r\n//         return Tplayer[msg.sender].timeplayed;\r\n//     }\r\n//   function timesWon() public view returns(uint){\r\n//         return Tplayer[msg.sender].wins;\r\n//     }\r\n\r\n     function getPlayerStats(address player) public view returns (uint wins, uint losses, uint timePlayed) {\r\n        Player storage playerInfo = Tplayer[player];\r\n        return (playerInfo.wins, playerInfo.losses, playerInfo.timeplayed);\r\n    }\r\n\r\n// function timesLost() public view returns(uint){\r\n//         return Tplayer[msg.sender].losses;\r\n//     }\r\n\r\n    function joinGame() external payable  {\r\n        require(msg.value == amount, \"Incorrect ether value sent\");\r\n        require(players.length < 100, \"Maximum number of players reached\");\r\n  for (uint256 i = 0; i < players.length; i++) {\r\n            require(players[i] != msg.sender, \"You are already a participant in the game.\");\r\n        }\r\n        players.push(msg.sender);\r\n         TVolume += msg.value;\r\n        TX++;\r\n        Player storage newPlayer = Tplayer[msg.sender];\r\n        newPlayer.timeplayed++;\r\n    }\r\n\r\n    function pickWinner() public onlyManager {\r\n        require(players.length >= 3, \"This lottery needs more than 3 players\");\r\n\r\n        uint index = random() % players.length;\r\n         winner = players[index];\r\n\r\n        Tplayer[winner].wins++;\r\n        TX++;\r\n\r\n        for (uint i = 0; i < players.length; i++) {\r\n            if (i != index) {\r\n                Tplayer[players[i]].losses++;\r\n            }\r\n        }\r\n\r\n        prize = address(this).balance;\r\n        winners.push(winner);\r\n        emit WinnerPicked(winner, prize);\r\n\r\n        // Reset the game\r\n        resetGame();\r\n    }\r\n\r\n    function transferPrize() public onlyWinner {\r\n        require(prize > 0, \"No prize to transfer\");\r\n         TVolume+=prize;\r\n        payable(winners[winners.length - 1]).transfer(prize);\r\n       \r\n        TX++;\r\n        prize = 0; // Reset prize after transfer\r\n        \r\n    }\r\nfunction viewPlayers() public view returns (address[] memory) {\r\n        return players;\r\n    }\r\n    function random() private view returns (uint) {\r\n        return uint(keccak256(abi.encodePacked(blockhash(block.number - 1), block.timestamp, players)));\r\n    }\r\n\r\n    function resetGame() private {\r\n        delete players;\r\n    }\r\n\r\n    function getWinCount(address player) public view returns (uint) {\r\n        return Tplayer[player].wins;\r\n    }\r\n\r\n    function viewPastWinners() public view returns (address[] memory) {\r\n        return winners;\r\n    }\r\n}\r\n",
  "sourcePath": "C:\\Users\\akint\\Documents\\Nodeproject\\Lottery\\contracts\\lottery.sol",
  "compiler": {
    "name": "solc",
    "version": "0.8.19+commit.7dd6d404.Emscripten.clang"
  },
  "schemaVersion": "3.4.16",
  "updatedAt": "2023-12-28T02:56:43.947Z",
  "networkType": "ethereum",
  "devdoc": {
    "kind": "dev",
    "methods": {},
    "version": 1
  },
  "userdoc": {
    "kind": "user",
    "methods": {},
    "version": 1
  }
}