{
  "contractName": "Lottery",
  "abi": [
    {
      "inputs": [],
      "stateMutability": "nonpayable",
      "type": "constructor"
    },
    {
      "anonymous": false,
      "inputs": [
        {
          "indexed": false,
          "internalType": "address",
          "name": "winner",
          "type": "address"
        },
        {
          "indexed": false,
          "internalType": "uint256",
          "name": "prize",
          "type": "uint256"
        }
      ],
      "name": "WinnerPicked",
      "type": "event"
    },
    {
      "inputs": [],
      "name": "TVolume",
      "outputs": [
        {
          "internalType": "uint256",
          "name": "",
          "type": "uint256"
        }
      ],
      "stateMutability": "view",
      "type": "function",
      "constant": true
    },
    {
      "inputs": [],
      "name": "TX",
      "outputs": [
        {
          "internalType": "uint256",
          "name": "",
          "type": "uint256"
        }
      ],
      "stateMutability": "view",
      "type": "function",
      "constant": true
    },
    {
      "inputs": [
        {
          "internalType": "address",
          "name": "",
          "type": "address"
        }
      ],
      "name": "Tplayer",
      "outputs": [
        {
          "internalType": "uint256",
          "name": "timeplayed",
          "type": "uint256"
        },
        {
          "internalType": "uint256",
          "name": "wins",
          "type": "uint256"
        },
        {
          "internalType": "uint256",
          "name": "losses",
          "type": "uint256"
        },
        {
          "internalType": "uint256",
          "name": "score",
          "type": "uint256"
        }
      ],
      "stateMutability": "view",
      "type": "function",
      "constant": true
    },
    {
      "inputs": [],
      "name": "amount",
      "outputs": [
        {
          "internalType": "uint256",
          "name": "",
          "type": "uint256"
        }
      ],
      "stateMutability": "view",
      "type": "function",
      "constant": true
    },
    {
      "inputs": [
        {
          "internalType": "uint256",
          "name": "",
          "type": "uint256"
        }
      ],
      "name": "leaderboard",
      "outputs": [
        {
          "internalType": "address",
          "name": "playerAddress",
          "type": "address"
        },
        {
          "internalType": "uint256",
          "name": "wins",
          "type": "uint256"
        }
      ],
      "stateMutability": "view",
      "type": "function",
      "constant": true
    },
    {
      "inputs": [],
      "name": "manager",
      "outputs": [
        {
          "internalType": "address",
          "name": "",
          "type": "address"
        }
      ],
      "stateMutability": "view",
      "type": "function",
      "constant": true
    },
    {
      "inputs": [
        {
          "internalType": "uint256",
          "name": "",
          "type": "uint256"
        }
      ],
      "name": "players",
      "outputs": [
        {
          "internalType": "address",
          "name": "",
          "type": "address"
        }
      ],
      "stateMutability": "view",
      "type": "function",
      "constant": true
    },
    {
      "inputs": [],
      "name": "prize",
      "outputs": [
        {
          "internalType": "uint256",
          "name": "",
          "type": "uint256"
        }
      ],
      "stateMutability": "view",
      "type": "function",
      "constant": true
    },
    {
      "inputs": [],
      "name": "winner",
      "outputs": [
        {
          "internalType": "address",
          "name": "",
          "type": "address"
        }
      ],
      "stateMutability": "view",
      "type": "function",
      "constant": true
    },
    {
      "inputs": [
        {
          "internalType": "uint256",
          "name": "",
          "type": "uint256"
        }
      ],
      "name": "winners",
      "outputs": [
        {
          "internalType": "address",
          "name": "",
          "type": "address"
        }
      ],
      "stateMutability": "view",
      "type": "function",
      "constant": true
    },
    {
      "inputs": [],
      "name": "getLeaderboard",
      "outputs": [
        {
          "components": [
            {
              "internalType": "address",
              "name": "playerAddress",
              "type": "address"
            },
            {
              "internalType": "uint256",
              "name": "wins",
              "type": "uint256"
            }
          ],
          "internalType": "struct Lottery.LeaderboardEntry[]",
          "name": "",
          "type": "tuple[]"
        }
      ],
      "stateMutability": "view",
      "type": "function",
      "constant": true
    },
    {
      "inputs": [
        {
          "internalType": "uint256",
          "name": "_commission",
          "type": "uint256"
        }
      ],
      "name": "setcommission",
      "outputs": [],
      "stateMutability": "nonpayable",
      "type": "function"
    },
    {
      "inputs": [],
      "name": "getBalance",
      "outputs": [
        {
          "internalType": "uint256",
          "name": "",
          "type": "uint256"
        }
      ],
      "stateMutability": "view",
      "type": "function",
      "constant": true
    },
    {
      "inputs": [],
      "name": "OwnerBalance",
      "outputs": [
        {
          "internalType": "uint256",
          "name": "",
          "type": "uint256"
        }
      ],
      "stateMutability": "view",
      "type": "function",
      "constant": true
    },
    {
      "inputs": [
        {
          "internalType": "address",
          "name": "player",
          "type": "address"
        }
      ],
      "name": "getPlayerStats",
      "outputs": [
        {
          "internalType": "uint256",
          "name": "wins",
          "type": "uint256"
        },
        {
          "internalType": "uint256",
          "name": "losses",
          "type": "uint256"
        },
        {
          "internalType": "uint256",
          "name": "timePlayed",
          "type": "uint256"
        }
      ],
      "stateMutability": "view",
      "type": "function",
      "constant": true
    },
    {
      "inputs": [],
      "name": "joinGame",
      "outputs": [],
      "stateMutability": "payable",
      "type": "function",
      "payable": true
    },
    {
      "inputs": [],
      "name": "pickWinner",
      "outputs": [],
      "stateMutability": "nonpayable",
      "type": "function"
    },
    {
      "inputs": [],
      "name": "transferPrize",
      "outputs": [],
      "stateMutability": "payable",
      "type": "function",
      "payable": true
    },
    {
      "inputs": [],
      "name": "viewPlayers",
      "outputs": [
        {
          "internalType": "address[]",
          "name": "",
          "type": "address[]"
        }
      ],
      "stateMutability": "view",
      "type": "function",
      "constant": true
    },
    {
      "inputs": [
        {
          "internalType": "address",
          "name": "player",
          "type": "address"
        }
      ],
      "name": "getWinCount",
      "outputs": [
        {
          "internalType": "uint256",
          "name": "",
          "type": "uint256"
        }
      ],
      "stateMutability": "view",
      "type": "function",
      "constant": true
    },
    {
      "inputs": [],
      "name": "viewPastWinners",
      "outputs": [
        {
          "internalType": "address[]",
          "name": "",
          "type": "address[]"
        }
      ],
      "stateMutability": "view",
      "type": "function",
      "constant": true
    }
  ],
  "bytecode": "0x608060405234801561001057600080fd5b50336000806101000a81548173ffffffffffffffffffffffffffffffffffffffff021916908373ffffffffffffffffffffffffffffffffffffffff1602179055506123a3806100606000396000f3fe60806040526004361061012a5760003560e01c8063aa8c217c116100ab578063e3ac5d261161006f578063e3ac5d26146103c8578063e60dd342146103f3578063ea8c50c61461041e578063ee18cd2f14610428578063f6b3e3c414610468578063f71d96cb146104935761012a565b8063aa8c217c146102ed578063bf36839914610318578063d4f77b1c14610356578063dfbf53ae14610360578063e0832cf61461038b5761012a565b806368fa8822116100f257806368fa8822146102065780636903a81b146102315780636d763a6e1461025a578063a19c935514610285578063a2fb1175146102b05761012a565b806312065fe01461012f5780632e0704e01461015a578063481c6a75146101855780634fd66eae146101b05780635d495aea146101ef575b600080fd5b34801561013b57600080fd5b506101446104d0565b604051610151919061181e565b60405180910390f35b34801561016657600080fd5b5061016f6104d8565b60405161017c919061181e565b60405180910390f35b34801561019157600080fd5b5061019a6105a6565b6040516101a7919061187a565b60405180910390f35b3480156101bc57600080fd5b506101d760048036038101906101d291906118c6565b6105ca565b6040516101e6939291906118f3565b60405180910390f35b3480156101fb57600080fd5b5061020461062e565b005b34801561021257600080fd5b5061021b6109f0565b604051610228919061181e565b60405180910390f35b34801561023d57600080fd5b5061025860048036038101906102539190611956565b6109f6565b005b34801561026657600080fd5b5061026f610a8e565b60405161027c9190611a7f565b60405180910390f35b34801561029157600080fd5b5061029a610b4d565b6040516102a7919061181e565b60405180910390f35b3480156102bc57600080fd5b506102d760048036038101906102d29190611956565b610b53565b6040516102e4919061187a565b60405180910390f35b3480156102f957600080fd5b50610302610b92565b60405161030f919061181e565b60405180910390f35b34801561032457600080fd5b5061033f600480360381019061033a9190611956565b610b9e565b60405161034d929190611aa1565b60405180910390f35b61035e610bf2565b005b34801561036c57600080fd5b50610375610e48565b604051610382919061187a565b60405180910390f35b34801561039757600080fd5b506103b260048036038101906103ad91906118c6565b610e6e565b6040516103bf919061181e565b60405180910390f35b3480156103d457600080fd5b506103dd610eba565b6040516103ea919061181e565b60405180910390f35b3480156103ff57600080fd5b50610408610ec0565b6040516104159190611b79565b60405180910390f35b610426610f4e565b005b34801561043457600080fd5b5061044f600480360381019061044a91906118c6565b6111db565b60405161045f9493929190611b9b565b60405180910390f35b34801561047457600080fd5b5061047d61120b565b60405161048a9190611b79565b60405180910390f35b34801561049f57600080fd5b506104ba60048036038101906104b59190611956565b611299565b6040516104c7919061187a565b60405180910390f35b600047905090565b60008060009054906101000a900473ffffffffffffffffffffffffffffffffffffffff1673ffffffffffffffffffffffffffffffffffffffff163373ffffffffffffffffffffffffffffffffffffffff1614610569576040517f08c379a000000000000000000000000000000000000000000000000000000000815260040161056090611c63565b60405180910390fd5b60008054906101000a900473ffffffffffffffffffffffffffffffffffffffff1673ffffffffffffffffffffffffffffffffffffffff1631905090565b60008054906101000a900473ffffffffffffffffffffffffffffffffffffffff1681565b600080600080600360008673ffffffffffffffffffffffffffffffffffffffff1673ffffffffffffffffffffffffffffffffffffffff1681526020019081526020016000209050806001015481600201548260000154935093509350509193909250565b60008054906101000a900473ffffffffffffffffffffffffffffffffffffffff1673ffffffffffffffffffffffffffffffffffffffff163373ffffffffffffffffffffffffffffffffffffffff16146106bc576040517f08c379a00000000000000000000000000000000000000000000000000000000081526004016106b390611c63565b60405180910390fd5b60036001805490501015610705576040517f08c379a00000000000000000000000000000000000000000000000000000000081526004016106fc90611cf5565b60405180910390fd5b60006001805490506107156112d8565b61071f9190611d44565b90506001818154811061073557610734611d75565b5b9060005260206000200160009054906101000a900473ffffffffffffffffffffffffffffffffffffffff16600460006101000a81548173ffffffffffffffffffffffffffffffffffffffff021916908373ffffffffffffffffffffffffffffffffffffffff16021790555060036000600460009054906101000a900473ffffffffffffffffffffffffffffffffffffffff1673ffffffffffffffffffffffffffffffffffffffff1673ffffffffffffffffffffffffffffffffffffffff168152602001908152602001600020600101600081548092919061081590611dd3565b91905055506007600081548092919061082d90611dd3565b919050555060005b6001805490508110156108f3578181146108e057600360006001838154811061086157610860611d75565b5b9060005260206000200160009054906101000a900473ffffffffffffffffffffffffffffffffffffffff1673ffffffffffffffffffffffffffffffffffffffff1673ffffffffffffffffffffffffffffffffffffffff16815260200190815260200160002060020160008154809291906108da90611dd3565b91905055505b80806108eb90611dd3565b915050610835565b50476005819055506002600460009054906101000a900473ffffffffffffffffffffffffffffffffffffffff169080600181540180825580915050600190039060005260206000200160009091909190916101000a81548173ffffffffffffffffffffffffffffffffffffffff021916908373ffffffffffffffffffffffffffffffffffffffff16021790555061098861131b565b7f64791dbae5677392ba76761a5273633cec8f1d9d8cfe808da7bac6ef16a880be600460009054906101000a900473ffffffffffffffffffffffffffffffffffffffff166005546040516109dd929190611aa1565b60405180910390a16109ed61174d565b50565b60075481565b60008054906101000a900473ffffffffffffffffffffffffffffffffffffffff1673ffffffffffffffffffffffffffffffffffffffff163373ffffffffffffffffffffffffffffffffffffffff1614610a84576040517f08c379a0000000000000000000000000000000000000000000000000000000008152600401610a7b90611c63565b60405180910390fd5b8060088190555050565b6060600a805480602002602001604051908101604052809291908181526020016000905b82821015610b4457838290600052602060002090600202016040518060400160405290816000820160009054906101000a900473ffffffffffffffffffffffffffffffffffffffff1673ffffffffffffffffffffffffffffffffffffffff1673ffffffffffffffffffffffffffffffffffffffff16815260200160018201548152505081526020019060010190610ab2565b50505050905090565b60065481565b60028181548110610b6357600080fd5b906000526020600020016000915054906101000a900473ffffffffffffffffffffffffffffffffffffffff1681565b67016345785d8a000081565b600a8181548110610bae57600080fd5b90600052602060002090600202016000915090508060000160009054906101000a900473ffffffffffffffffffffffffffffffffffffffff16908060010154905082565b67016345785d8a00003414610c3c576040517f08c379a0000000000000000000000000000000000000000000000000000000008152600401610c3390611e67565b60405180910390fd5b606460018054905010610c84576040517f08c379a0000000000000000000000000000000000000000000000000000000008152600401610c7b90611ef9565b60405180910390fd5b60005b600180549050811015610d53573373ffffffffffffffffffffffffffffffffffffffff1660018281548110610cbf57610cbe611d75565b5b9060005260206000200160009054906101000a900473ffffffffffffffffffffffffffffffffffffffff1673ffffffffffffffffffffffffffffffffffffffff1603610d40576040517f08c379a0000000000000000000000000000000000000000000000000000000008152600401610d3790611f8b565b60405180910390fd5b8080610d4b90611dd3565b915050610c87565b506001339080600181540180825580915050600190039060005260206000200160009091909190916101000a81548173ffffffffffffffffffffffffffffffffffffffff021916908373ffffffffffffffffffffffffffffffffffffffff1602179055503460066000828254610dc99190611fab565b9250508190555060076000815480929190610de390611dd3565b91905055506000600360003373ffffffffffffffffffffffffffffffffffffffff1673ffffffffffffffffffffffffffffffffffffffff1681526020019081526020016000209050806000016000815480929190610e4090611dd3565b919050555050565b600460009054906101000a900473ffffffffffffffffffffffffffffffffffffffff1681565b6000600360008373ffffffffffffffffffffffffffffffffffffffff1673ffffffffffffffffffffffffffffffffffffffff168152602001908152602001600020600101549050919050565b60055481565b60606002805480602002602001604051908101604052809291908181526020018280548015610f4457602002820191906000526020600020905b8160009054906101000a900473ffffffffffffffffffffffffffffffffffffffff1673ffffffffffffffffffffffffffffffffffffffff1681526020019060010190808311610efa575b5050505050905090565b600460009054906101000a900473ffffffffffffffffffffffffffffffffffffffff1673ffffffffffffffffffffffffffffffffffffffff163373ffffffffffffffffffffffffffffffffffffffff1614610fde576040517f08c379a0000000000000000000000000000000000000000000000000000000008152600401610fd59061202b565b60405180910390fd5b600060055411611023576040517f08c379a000000000000000000000000000000000000000000000000000000000815260040161101a90612097565b60405180910390fd5b600060085411611068576040517f08c379a000000000000000000000000000000000000000000000000000000000815260040161105f90612103565b60405180910390fd5b6005546006600082825461107c9190611fab565b9250508190555060646008546005546110959190612123565b61109f9190612165565b60098190555060006009546005546110b79190612196565b9050600260016002805490506110cd9190612196565b815481106110de576110dd611d75565b5b9060005260206000200160009054906101000a900473ffffffffffffffffffffffffffffffffffffffff1673ffffffffffffffffffffffffffffffffffffffff166108fc829081150290604051600060405180830381858888f1935050505015801561114e573d6000803e3d6000fd5b506007600081548092919061116290611dd3565b9190505550600060058190555060008054906101000a900473ffffffffffffffffffffffffffffffffffffffff1673ffffffffffffffffffffffffffffffffffffffff166108fc6009549081150290604051600060405180830381858888f193505050501580156111d7573d6000803e3d6000fd5b5050565b60036020528060005260406000206000915090508060000154908060010154908060020154908060030154905084565b6060600180548060200260200160405190810160405280929190818152602001828054801561128f57602002820191906000526020600020905b8160009054906101000a900473ffffffffffffffffffffffffffffffffffffffff1673ffffffffffffffffffffffffffffffffffffffff1681526020019060010190808311611245575b5050505050905090565b600181815481106112a957600080fd5b906000526020600020016000915054906101000a900473ffffffffffffffffffffffffffffffffffffffff1681565b60006001436112e79190612196565b404260016040516020016112fd93929190612334565b6040516020818303038152906040528051906020012060001c905090565b600a6000611329919061175d565b60005b6001805490508110156114b357600a60405180604001604052806001848154811061135a57611359611d75565b5b9060005260206000200160009054906101000a900473ffffffffffffffffffffffffffffffffffffffff1673ffffffffffffffffffffffffffffffffffffffff16815260200160036000600186815481106113b8576113b7611d75565b5b9060005260206000200160009054906101000a900473ffffffffffffffffffffffffffffffffffffffff1673ffffffffffffffffffffffffffffffffffffffff1673ffffffffffffffffffffffffffffffffffffffff16815260200190815260200160002060010154815250908060018154018082558091505060019003906000526020600020906002020160009091909190915060008201518160000160006101000a81548173ffffffffffffffffffffffffffffffffffffffff021916908373ffffffffffffffffffffffffffffffffffffffff16021790555060208201518160010155505080806114ab90611dd3565b91505061132c565b5060005b600a8054905081101561174a5760005b600182600a805490506114da9190612196565b6114e49190612196565b81101561173657600a6001826114fa9190611fab565b8154811061150b5761150a611d75565b5b906000526020600020906002020160010154600a828154811061153157611530611d75565b5b9060005260206000209060020201600101541015611723576000600a828154811061155f5761155e611d75565b5b90600052602060002090600202016040518060400160405290816000820160009054906101000a900473ffffffffffffffffffffffffffffffffffffffff1673ffffffffffffffffffffffffffffffffffffffff1673ffffffffffffffffffffffffffffffffffffffff1681526020016001820154815250509050600a6001836115e99190611fab565b815481106115fa576115f9611d75565b5b9060005260206000209060020201600a838154811061161c5761161b611d75565b5b90600052602060002090600202016000820160009054906101000a900473ffffffffffffffffffffffffffffffffffffffff168160000160006101000a81548173ffffffffffffffffffffffffffffffffffffffff021916908373ffffffffffffffffffffffffffffffffffffffff1602179055506001820154816001015590505080600a6001846116ae9190611fab565b815481106116bf576116be611d75565b5b906000526020600020906002020160008201518160000160006101000a81548173ffffffffffffffffffffffffffffffffffffffff021916908373ffffffffffffffffffffffffffffffffffffffff16021790555060208201518160010155905050505b808061172e90611dd3565b9150506114c7565b50808061174290611dd3565b9150506114b7565b50565b6001600061175b9190611781565b565b508054600082556002029060005260206000209081019061177e91906117a2565b50565b508054600082559060005260206000209081019061179f91906117e8565b50565b5b808211156117e457600080820160006101000a81549073ffffffffffffffffffffffffffffffffffffffff02191690556001820160009055506002016117a3565b5090565b5b808211156118015760008160009055506001016117e9565b5090565b6000819050919050565b61181881611805565b82525050565b6000602082019050611833600083018461180f565b92915050565b600073ffffffffffffffffffffffffffffffffffffffff82169050919050565b600061186482611839565b9050919050565b61187481611859565b82525050565b600060208201905061188f600083018461186b565b92915050565b600080fd5b6118a381611859565b81146118ae57600080fd5b50565b6000813590506118c08161189a565b92915050565b6000602082840312156118dc576118db611895565b5b60006118ea848285016118b1565b91505092915050565b6000606082019050611908600083018661180f565b611915602083018561180f565b611922604083018461180f565b949350505050565b61193381611805565b811461193e57600080fd5b50565b6000813590506119508161192a565b92915050565b60006020828403121561196c5761196b611895565b5b600061197a84828501611941565b91505092915050565b600081519050919050565b600082825260208201905092915050565b6000819050602082019050919050565b6119b881611859565b82525050565b6119c781611805565b82525050565b6040820160008201516119e360008501826119af565b5060208201516119f660208501826119be565b50505050565b6000611a0883836119cd565b60408301905092915050565b6000602082019050919050565b6000611a2c82611983565b611a36818561198e565b9350611a418361199f565b8060005b83811015611a72578151611a5988826119fc565b9750611a6483611a14565b925050600181019050611a45565b5085935050505092915050565b60006020820190508181036000830152611a998184611a21565b905092915050565b6000604082019050611ab6600083018561186b565b611ac3602083018461180f565b9392505050565b600081519050919050565b600082825260208201905092915050565b6000819050602082019050919050565b6000611b0283836119af565b60208301905092915050565b6000602082019050919050565b6000611b2682611aca565b611b308185611ad5565b9350611b3b83611ae6565b8060005b83811015611b6c578151611b538882611af6565b9750611b5e83611b0e565b925050600181019050611b3f565b5085935050505092915050565b60006020820190508181036000830152611b938184611b1b565b905092915050565b6000608082019050611bb0600083018761180f565b611bbd602083018661180f565b611bca604083018561180f565b611bd7606083018461180f565b95945050505050565b600082825260208201905092915050565b7f4f6e6c79206d616e616765722063616e2063616c6c20746869732066756e637460008201527f696f6e0000000000000000000000000000000000000000000000000000000000602082015250565b6000611c4d602383611be0565b9150611c5882611bf1565b604082019050919050565b60006020820190508181036000830152611c7c81611c40565b9050919050565b7f54686973206c6f7474657279206e65656473206d6f7265207468616e2033207060008201527f6c61796572730000000000000000000000000000000000000000000000000000602082015250565b6000611cdf602683611be0565b9150611cea82611c83565b604082019050919050565b60006020820190508181036000830152611d0e81611cd2565b9050919050565b7f4e487b7100000000000000000000000000000000000000000000000000000000600052601260045260246000fd5b6000611d4f82611805565b9150611d5a83611805565b925082611d6a57611d69611d15565b5b828206905092915050565b7f4e487b7100000000000000000000000000000000000000000000000000000000600052603260045260246000fd5b7f4e487b7100000000000000000000000000000000000000000000000000000000600052601160045260246000fd5b6000611dde82611805565b91507fffffffffffffffffffffffffffffffffffffffffffffffffffffffffffffffff8203611e1057611e0f611da4565b5b600182019050919050565b7f496e636f72726563742065746865722076616c75652073656e74000000000000600082015250565b6000611e51601a83611be0565b9150611e5c82611e1b565b602082019050919050565b60006020820190508181036000830152611e8081611e44565b9050919050565b7f4d6178696d756d206e756d626572206f6620706c61796572732072656163686560008201527f6400000000000000000000000000000000000000000000000000000000000000602082015250565b6000611ee3602183611be0565b9150611eee82611e87565b604082019050919050565b60006020820190508181036000830152611f1281611ed6565b9050919050565b7f596f752061726520616c72656164792061207061727469636970616e7420696e60008201527f207468652067616d652e00000000000000000000000000000000000000000000602082015250565b6000611f75602a83611be0565b9150611f8082611f19565b604082019050919050565b60006020820190508181036000830152611fa481611f68565b9050919050565b6000611fb682611805565b9150611fc183611805565b9250828201905080821115611fd957611fd8611da4565b5b92915050565b7f6f6e6c792077696e6e65722063616e20636c61696d0000000000000000000000600082015250565b6000612015601583611be0565b915061202082611fdf565b602082019050919050565b6000602082019050818103600083015261204481612008565b9050919050565b7f4e6f207072697a6520746f207472616e73666572000000000000000000000000600082015250565b6000612081601483611be0565b915061208c8261204b565b602082019050919050565b600060208201905081810360008301526120b081612074565b9050919050565b7f7a65726f20706c6174666f726d20666565730000000000000000000000000000600082015250565b60006120ed601283611be0565b91506120f8826120b7565b602082019050919050565b6000602082019050818103600083015261211c816120e0565b9050919050565b600061212e82611805565b915061213983611805565b925082820261214781611805565b9150828204841483151761215e5761215d611da4565b5b5092915050565b600061217082611805565b915061217b83611805565b92508261218b5761218a611d15565b5b828204905092915050565b60006121a182611805565b91506121ac83611805565b92508282039050818111156121c4576121c3611da4565b5b92915050565b6000819050919050565b6000819050919050565b6121ef6121ea826121ca565b6121d4565b82525050565b6000819050919050565b61221061220b82611805565b6121f5565b82525050565b600081549050919050565b600081905092915050565b60008190508160005260206000209050919050565b61224a81611859565b82525050565b600061225c8383612241565b60208301905092915050565b60008160001c9050919050565b600073ffffffffffffffffffffffffffffffffffffffff82169050919050565b60006122a86122a383612268565b612275565b9050919050565b60006122bb8254612295565b9050919050565b6000600182019050919050565b60006122da82612216565b6122e48185612221565b93506122ef8361222c565b8060005b8381101561232757612304826122af565b61230e8882612250565b9750612319836122c2565b9250506001810190506122f3565b5085935050505092915050565b600061234082866121de565b60208201915061235082856121ff565b60208201915061236082846122cf565b915081905094935050505056fea264697066735822122066a3b665eb40114113d21e45f93e4df5d3001a7a41f396aefb3b8e733092f04964736f6c63430008130033",
  "immutableReferences": {},
  "source": "// SPDX-License-Identifier: MIT\r\npragma solidity ^0.8.19;\r\n\r\ncontract Lottery {\r\n    address public manager;\r\n    address[] public players;\r\n    address[] public winners;\r\n\r\n\r\n    mapping(address => Player) public Tplayer;\r\n    address public winner;\r\n    uint public prize;\r\n    uint public constant amount = 0.1 ether;\r\n    uint public TVolume;\r\n    uint public TX;\r\n    uint private commission;\r\n    uint private  commissionvalue;\r\n   \r\n \r\n    struct Player {\r\n        uint timeplayed;\r\n        uint wins;\r\n        uint losses;\r\n        uint score;\r\n    }\r\n\r\n    // Add a new struct to represent leaderboard entry\r\nstruct LeaderboardEntry {\r\n    address playerAddress;\r\n    uint wins;\r\n}\r\n\r\n// Modify the leaderboard declaration\r\nLeaderboardEntry[] public leaderboard;\r\n\r\n// ...\r\n\r\n// Modify the updateLeaderboard function\r\n// Modify the updateLeaderboard function\r\nfunction updateLeaderboard() internal {\r\n\r\n    // Clear the leaderboard\r\n    delete leaderboard;\r\n\r\n    // Populate the leaderboard with all players\r\n    for (uint i = 0; i < players.length; i++) {\r\n        leaderboard.push(LeaderboardEntry({\r\n            playerAddress: players[i],\r\n            wins: Tplayer[players[i]].wins\r\n        }));\r\n    }\r\n\r\n    // Sorting logic (bubble sort for simplicity)\r\n    for (uint i = 0; i < leaderboard.length; i++) {\r\n        for (uint j = 0; j < leaderboard.length - i - 1; j++) {\r\n            if (leaderboard[j].wins < leaderboard[j + 1].wins) {\r\n                // Use a temporary variable to perform the swap\r\n                LeaderboardEntry memory temp = leaderboard[j];\r\n                leaderboard[j] = leaderboard[j + 1];\r\n                leaderboard[j + 1] = temp;\r\n            }\r\n        }\r\n    }\r\n}\r\n\r\n\r\n// Modify the getLeaderboard function\r\nfunction getLeaderboard() public view returns (LeaderboardEntry[] memory) {\r\n    return leaderboard;\r\n}\r\n\r\n\r\nconstructor(){\r\n     manager =msg.sender;\r\n}\r\n    modifier onlyManager() {\r\n        require(msg.sender == manager, \"Only manager can call this function\");\r\n        _;\r\n    }\r\n\r\n    modifier onlyWinner(){\r\n        require(msg.sender == winner,\"only winner can claim\");\r\n        _;\r\n    }\r\n   \r\n    event WinnerPicked(address winner, uint256 prize);\r\n\r\n\r\n    \r\nfunction setcommission(uint _commission) onlyManager public {\r\ncommission = _commission;\r\n}\r\n\r\nfunction getBalance() public view returns (uint) {\r\n        return address(this).balance;\r\n    }\r\n\r\n    function OwnerBalance() public view onlyManager returns(uint)  {\r\n\r\n        return  manager.balance;\r\n    }\r\n    // function getTV() public view returns(uint){\r\n    //     return TVolume;\r\n    // }\r\n\r\n    // function TXtimes() public view returns(uint){\r\n    //     return TX;\r\n    // }\r\n//     function timesPlayed() public view returns(uint){\r\n//         return Tplayer[msg.sender].timeplayed;\r\n//     }\r\n//   function timesWon() public view returns(uint){\r\n//         return Tplayer[msg.sender].wins;\r\n//     }\r\n\r\n\r\n\r\n\r\n\r\n     function getPlayerStats(address player) public view returns (uint wins, uint losses, uint timePlayed) {\r\n        Player storage playerInfo = Tplayer[player];\r\n        return (playerInfo.wins, playerInfo.losses, playerInfo.timeplayed);\r\n    }\r\n\r\n// function timesLost() public view returns(uint){\r\n//         return Tplayer[msg.sender].losses;\r\n//     }\r\n\r\n    function joinGame() external payable  {\r\n        require(msg.value == amount, \"Incorrect ether value sent\");\r\n        require(players.length < 100, \"Maximum number of players reached\");\r\n  for (uint256 i = 0; i < players.length; i++) {\r\n            require(players[i] != msg.sender, \"You are already a participant in the game.\");\r\n        }\r\n        players.push(msg.sender);\r\n         TVolume += msg.value;\r\n        TX++;\r\n        Player storage newPlayer = Tplayer[msg.sender];\r\n        newPlayer.timeplayed++;\r\n    }\r\n\r\n    function pickWinner() public onlyManager {\r\n        require(players.length >= 3, \"This lottery needs more than 3 players\");\r\n\r\n        uint index = random() % players.length;\r\n         winner = players[index];\r\n\r\n        Tplayer[winner].wins++;\r\n        TX++;\r\n\r\n        for (uint i = 0; i < players.length; i++) {\r\n            if (i != index) {\r\n                Tplayer[players[i]].losses++;\r\n            }\r\n        }\r\n\r\n        prize = address(this).balance;\r\n        winners.push(winner);\r\n        updateLeaderboard();\r\n        emit WinnerPicked(winner, prize);\r\n\r\n        // Reset the game\r\n        resetGame();\r\n    }\r\n\r\n    function transferPrize() public payable onlyWinner {\r\n        require(prize > 0, \"No prize to transfer\");\r\n        require(commission > 0, \"zero platform fees\");\r\n         TVolume+=prize;\r\n         commissionvalue = (prize * commission) / 100;\r\n         uint actualprize = prize - commissionvalue;\r\n\r\n        payable(winners[winners.length - 1]).transfer(actualprize);\r\n       \r\n        TX++;\r\n        prize = 0; // Reset prize after transfer\r\n        payable(manager).transfer(commissionvalue);\r\n        \r\n    }\r\n\r\nfunction viewPlayers() public view returns (address[] memory) {\r\n        return players;\r\n    }\r\n    function random() private view returns (uint) {\r\n        return uint(keccak256(abi.encodePacked(blockhash(block.number - 1), block.timestamp, players)));\r\n    }\r\n\r\n    function resetGame() private {\r\n        delete players;\r\n    }\r\n\r\n    function getWinCount(address player) public view returns (uint) {\r\n        return Tplayer[player].wins;\r\n    }\r\n\r\n    function viewPastWinners() public view returns (address[] memory) {\r\n        return winners;\r\n    }\r\n}\r\n",
  "sourcePath": "C:\\Users\\akint\\Documents\\Nodeproject\\ma3icsv1\\contracts\\lottery.sol",
  "compiler": {
    "name": "solc",
    "version": "0.8.19+commit.7dd6d404.Emscripten.clang"
  },
  "schemaVersion": "3.4.16",
  "updatedAt": "2024-01-18T23:20:17.173Z",
  "networkType": "ethereum",
  "devdoc": {
    "kind": "dev",
    "methods": {},
    "version": 1
  },
  "userdoc": {
    "kind": "user",
    "methods": {},
    "version": 1
  }
}